S011000046697273745F4543552E73726563CF
S11300000C942A000C9447000C9447000C9447006D
S11300100C9447000C9447000C9447000C94470040
S11300200C9447000C9447000C9447000C948403F0
S11300300C9447000C9447000C9447000C94470020
S11300400C9447000C9447000C9447000C94470010
S11300500C94470011241FBECFE5D8E0DEBFCDBF0E
S113006011E0A0E6B0E0E4EDFBE002C005900D92E3
S1130070A435B107D9F711E0A4E5B1E001C01D92A0
S1130080A536B107E1F70E94E2020C94E8050C944E
S113009000000E94A1030895CF93C82F0E94A403D7
S11300A088EA0E94B2038C2F0E94B2030E94A40328
S11300B089EA0E94B2030E94B903C82F0E94C003B8
S11300C08C2FCF910895CF93DF93D82FC62F0E9402
S11300D0A40388EA0E94B2038D2F0E94B2038C2FDE
S11300E00E94B2030E94C003DF91CF910895CF9381
S11300F00E94E403C82F8F3F09F462C28E3409F4CE
S11301005FC280915601823009F466C0833030F4B6
S1130110882359F0813009F053C234C0833009F484
S113012085C0843009F04CC2FDC1CF3409F448C203
S1130130C33409F445C283EC0E943B048C2F0E9413
S1130140CF048FEF91EEA4E081509040A040E1F7FE
S113015000C0000083EC0E943B048AE20E94CF04AA
S11301608FEF93ECA9E081509040A040E1F700C0EC
S11301700000C053C0935D01809156018F5F80934E
S113018056011EC2CF3409F41BC2C33409F418C289
S11301908C2F0E94CF048FEF91EEA4E08150904009
S11301A0A040E1F700C0000084EC0E943B048AE216
S11301B00E94CF04C053C0935B018FEF93ECA9E07E
S11301C081509040A040E1F700C0000080915601AA
S11301D08F5F80935601F4C1CF3409F4F1C1C33465
S11301E009F4EEC18C2F0E94CF048FEF91EEA4E0AE
S11301F081509040A040E1F700C0000085EC0E94CF
S11302003B048AE20E94CF04C053C09362018FEF83
S113021093ECA9E081509040A040E1F700C00000B9
S1130220809156018F5F80935601CAC1CF3411F07B
S1130230C33421F483E080935601C2C18C2F0E9401
S1130240CF048FEF91EEA4E081509040A040E1F7FD
S113025000C0000086EC0E943B048AE20E94CF04A6
S1130260C053C09359018FEF93ECA9E081509040A3
S1130270A040E1F700C0000080915701882309F0F5
S1130280ACC020915D0190915A01291709F041C039
S113029020915B0190916001291741F52091620141
S11302A090916401291711F590916101C917F1F436
S11302B081E00E943B0480E690E00E94290580ECE6
S11302C00E943B048AE690E00E94290510925501A1
S11302D08FE060E00E946300AD9A89B7816089BFB6
S11302E0809156018F5F809356016AC120915B0112
S11302F090916001291769F4209162019091640141
S1130300291739F42091590190916101291709F4B1
S113031083C0809155018F5F8093550181E00E94D5
S11303203B0486E790E00E9429058FEF92E5A7E061
S113033081509040A040E1F700C0000081E00E949D
S11303403B048091550163E070E0681B71098827C4
S113035077FD8095982F0E943F0585E890E00E94E4
S113036029058FE0609155010E9463008FEF91EEA3
S1130370A4E081509040A040E1F700C0000010923A
S1130380560180915501833009F01AC1AC9A81E07D
S11303900E943B0481E990E00E94290580EC0E94C0
S11303A03B0481EA90E00E9429058FEF93E2A4EFD9
S11303B081509040A040E1F700C00000AC9881E07B
S11303C00E943B048CEA90E00E942905109255019A
S11303D08FE060E00E946300F3C08130E9F4809113
S11303E05D0180935E0180915B0180935C0180914B
S11303F06201809363018091590180935F0181E0E0
S11304000E943B048DEB90E00E94290582E08093DA
S1130410570110925601D4C0823009F0D1C06091C6
S11304205D0180915E01681709F06FC090915B01D6
S113043080915C01981709F055C0909162018091F8
S11304406301981709F04EC09091590180915F01A2
S1130450981709F047C08AE00E9463008FEF91EE7D
S1130460A4E081509040A040E1F700C000008BE080
S113047060915C010E9463008FEF91EEA4E08150D3
S11304809040A040E1F700C000008CE0609163015F
S11304900E9463008FEF91EEA4E081509040A04051
S11304A0E1F700C000008DE060915F010E946300ED
S11304B081E00E943B048EEC90E00E9429058FEFBE
S11304C099E6A8E181509040A040E1F700C0000007
S11304D081E00E943B041092540110925701109243
S11304E056016EC090915B0180915C01981769F48C
S11304F09091620180916301981739F490915901A8
S113050080915F01981709F45BC081E00E943B046D
S11305108FED90E00E94290581E0809357011092AD
S113052056014EC0C334C9F481E00E943B048FEEEF
S113053090E00E94290589B78E7F89BF81E080936E
S113054057018FEF93ECA9E081509040A040E1F770
S113055000C000001092560133C0CF3409F589B7AA
S11305608E7F89BF81E00E943B0482E80E943B04A5
S11305708EEF90E00E94290581E30E94BE058FEF73
S113058093EDA0E381509040A040E1F700C000004B
S113059081E00E943B04109254011092560110C055
S11305A081E00E943B048BE091E00E9429058FEFDB
S11305B093ECA9E081509040A040E1F700C0000016
S11305C0CF9108950E9495040E94B7050E94D80314
S11305D00E9449000E94AA05A49AA59A8FE00E944D
S11305E04C00809355018EE00E944C00C82F0F2EC2
S11305F0F8E1EF2EF1E0FF2EF02D0F2EF5E2CF2ED5
S1130600F1E0DF2EF02D0F2EF1E9AF2EF0E0BF2E3A
S1130610F02D0F2EF1EA8F2EF0E09F2EF02D0F2EED
S1130620FCEA6F2EF0E07F2EF02D04E311E0CF3FC3
S1130630F9F481E00E943B04C7010E9429058FEF71
S113064095EAAEE081509040A040E1F700C0000080
S113065081E00E943B04C6010E94290581E0809349
S11306605701809354018EE06FE00E946300CFE055
S113067080915501833019F5AC9A81E00E943B04C6
S1130680C5010E94290580EC0E943B04C4010E941C
S113069029058FEF93E2A4EF81509040A040E1F749
S11306A000C00000AC9881E00E943B04C3010E949A
S11306B02905109255018FE060E00E94630080914B
S11306C054018823F1F481E00E943B04C8010E9494
S11306D029058AE00E944C0080935A018BE00E9415
S11306E04C00809360018CE00E944C008093640174
S11306F08DE00E944C008093610181E0809354015D
S1130700AD980E94770093CF1F920F920FB60F926D
S113071011248F93809158018F5F80935801853FF6
S113072051F4AD9810925801109256011092540150
S113073089B78E7F89BF8F910F900FBE0F901F9046
S113074018958CE080B9089584EA86BF06B607FE42
S1130750FDCF0895880F83B984E886BF06B607FEE7
S1130760FDCF089583B984E886BF06B607FEFDCFA2
S1130770089584E886BF06B607FEFDCF83B10895C9
S113078084E986BF0895880F82B9089584EC86BFF2
S113079006B607FEFDCF91B181E0903609F080E006
S11307A0089584EC86BF06B607FEFDCF83B1089595
S11307B08A988B988C988D9882B38C6382BBBC9AF0
S11307C0BD9ABE9ABF9A0895E0E088B38F7088BB43
S11307D0EE2321F488B3806E88BB0CC0E13021F491
S11307E088B3806D88BB0BC0E23021F488B3806B82
S11307F088BB05C0E33019F488B3806788BB80B335
S113080082FD09C0F0E0EE0FFF1FEE0FFF1FED5B4E
S1130810FE4F8081089580B383FD09C0F0E0EE0FA0
S1130820FF1FEE0FFF1FED5BFE4F8181089580B324
S113083084FD09C0F0E0EE0FFF1FEE0FFF1FED5B1C
S1130840FE4F8281089580B385FD09C0F0E0EE0F6C
S1130850FF1FEE0FFF1FED5BFE4F838108958FE9AD
S11308609FE00197F1F700C00000EF5FE43009F06A
S1130870ACCF8FEF0895D998982F92959F7090FFE1
S113088002C0DB9A01C0DB98982F929596959770D9
S113089090FF02C0DC9A01C0DC98982F929596953F
S11308A09695937090FF02C0DD9A01C0DD9888236D
S11308B014F4DE9A01C0DE98DA9AEFE9FFE031978A
S11308C0F1F700C00000DA98EFE9FFE03197F1F7A3
S11308D000C0000080FF02C0DB9A01C0DB98982FA3
S11308E0969590FF02C0DC9A01C0DC98982F9695EB
S11308F0969590FF02C0DD9A01C0DD988695869595
S1130900869580FF02C0DE9A01C0DE98DA9A8FE9EC
S11309109FE00197F1F700C00000DA98EFE9FFE0EB
S11309203197F1F700C0000008958AB38E678ABB3F
S113093083E00E943B048FE79EE30197F1F700C038
S1130940000083E00E943B04AFE7BEE31197F1F798
S113095000C0000083E00E943B048FE79EE3019700
S1130960F1F700C0000082E00E943B0488E20E948C
S11309703B0488E00E943B0481E00E943B0486E043
S11309800E943B048FEF99EFA0E081509040A0407B
S1130990E1F700C000008CE00E943B040895D99A5E
S11309A0982F92959F7090FF02C0DB9A01C0DB984C
S11309B0982F92959695977090FF02C0DC9A01C08B
S11309C0DC98982F929596959695937090FF02C017
S11309D0DD9A01C0DD98882314F4DE9A01C0DE9804
S11309E0DA9AEFE9FFE03197F1F700C00000DA98F6
S11309F0EFE9FFE03197F1F700C0000080FF02C08B
S1130A00DB9A01C0DB98982F969590FF02C0DC9A80
S1130A1001C0DC98982F9695969590FF02C0DD9AB8
S1130A2001C0DD9886958695869580FF02C0DE9A82
S1130A3001C0DE98DA9A8FE99FE00197F1F700C0D0
S1130A400000DA98EFE9FFE03197F1F700C0000009
S1130A5008950F931F93CF938C01FC018081882309
S1130A6051F0C0E00E94CF04CF5FF801EC0FF11DFC
S1130A7080818823B9F7CF911F910F9108958F92A8
S1130A809F92AF92BF92EF92FF921F93CF93DF9307
S1130A90CDB7DEB72A970FB6F894DEBF0FBECDBF31
S1130AA0DC01CB01AE014F5F5F4F2AE0FA011192E6
S1130AB02A95E9F70097A105B10521F480E30E9486
S1130AC0CF0438C010E00F2EFAE08F2EF0E09F2EF6
S1130AD0F0E0AF2EF0E0BF2EF02DE12EFF24E7FC76
S1130AE0F09421E030E02C0F3D1FE20EF31EBC0118
S1130AF0CD01A50194010E94C605605DF7016083E4
S1130B00822F932FA42FB52F1F5F0097A105B10546
S1130B1021F711507AF0E12FFF27E7FDF09521E04E
S1130B2030E02C0F3D1FE20FF31F80810E94CF04A1
S1130B30115088F72A960FB6F894DEBF0FBECDBFCA
S1130B40DF91CF911F91FF90EF90BF90AF909F9056
S1130B508F90089585E883BF789408958DE883BFC6
S1130B6088EC8CBF89B7826089BF7894089587E642
S1130B7089B988E98AB986E880BD08955D9BFECF6E
S1130B808CB908955F9BFECF8CB10895A1E21A2E13
S1130B90AA1BBB1BFD010DC0AA1FBB1FEE1FFF1F1D
S1130BA0A217B307E407F50720F0A21BB30BE40B6D
S1130BB0F50B661F771F881F991F1A9469F76095B4
S1130BC07095809590959B01AC01BD01CF0108956E
S1070BD0F894FFCFC3
S1130BD46F20746F206F70656E006320746F2063E0
S1130BE468616E67650057726F6E67207061737316
S1130BF4776F726400205472696573206C6566743F
S1130C0400796F752061726520626C6F636B656433
S1130C1400666F722032302073656300456E74651C
S1130C2472207269676874207061737300706C7ADF
S1130C3420636F6E6669726D2070617373007061F6
S1130C447373776F7264206368616E676564007799
S1130C54726F6E672074727920616761696E0077C0
S1130C6472697465206E6577207061737300446FD4
S1130C746F72206973206F70656E0057726F6E67B0
S1130C8420456E74657279004669727374204C6FE2
S1130C946720496E00456E746572205061737377E2
S1130CA46F72640020446F6F722050617373776FA6
S1130CB47264004E3938374E3635344E3332314E41
S1070CC44F30430066
S9030000FC
