:100000000C942A000C9447000C9447000C94470071
:100010000C9447000C9447000C9447000C94470044
:100020000C9447000C9447000C9447000C94470034
:100030000C9447000C9487000C9447000C944700E4
:100040000C9447000C9447000C9447000C94470014
:100050000C94470011241FBECFE5D8E0DEBFCDBF12
:1000600010E0A0E6B0E0EEEFF3E002C005900D92E4
:10007000A036B107D9F710E0A0E6B0E001C01D92AC
:10008000A136B107E1F70E947B000C94FD010C94AE
:1000900000008D9A8FB583688FBD8DE08EBD089569
:1000A000BC0180E090E00E940C0124E13EEA43E2C2
:1000B00051E40E9472010E94E000DC01CB019BBD73
:1000C0008ABD08958C9A8FB583628FBD8DE08EBDF9
:1000D0000895BC0180E090E00E940C0124E13EEA1A
:1000E00043E251E40E9472010E94E000DC01CB0176
:1000F00099BD88BD08957894A19AA29A0E94D100D2
:100100000E94620080E090E00E946900FFCF1F9291
:100110000F920FB60F9211242F933F934F935F933B
:100120006F937F938F939F93AF93BF93EF93FF93BF
:100130008CB180936000813319F584E690E00E94D1
:100140006900A99AAA988FEF99E6A8E1815090409A
:10015000A040E1F700C00000AA9AA99884E690E0C8
:100160000E9469008FEF99E6A8E181509040A0407D
:10017000E1F700C0000080E090E00E946900AA98CA
:10018000FF91EF91BF91AF919F918F917F916F916F
:100190005F914F913F912F910F900FBE0F901F9045
:1001A000189587E689B988E98AB986E880BD0895F7
:1001B0005D9BFECF8CB908955F9BFECF8CB10895F7
:1001C00070D088F09F5790F0B92F9927B751A0F0C1
:1001D000D1F0660F771F881F991F1AF0BA95C9F7DB
:1001E00012C0B13081F077D0B1E0089574C0672FAC
:1001F000782F8827B85F39F0B93FCCF3869577958B
:100200006795B395D9F73EF4909580957095619573
:100210007F4F8F4F9F4F0895E89409C097FB3EF49E
:1002200090958095709561957F4F8F4F9F4F992343
:10023000A9F0F92F96E9BB279395F69587957795C1
:100240006795B795F111F8CFFAF4BB0F11F460FF81
:100250001BC06F5F7F4F8F4F9F4F16C0882311F0D9
:1002600096E911C0772321F09EE8872F762F05C0ED
:10027000662371F096E8862F70E060E02AF09A9588
:10028000660F771F881FDAF7880F9695879597F97D
:10029000089557FD9058440F551F59F05F3F71F076
:1002A0004795880F97FB991F61F09F3F79F08795DD
:1002B0000895121613061406551FF2CF4695F1DF66
:1002C00008C0161617061806991FF1CF86957105F6
:1002D000610508940895E894BB2766277727CB012A
:1002E00097F908950BD078C069D028F06ED018F037
:1002F000952309F05AC05FC01124EECFCADFA0F3E6
:10030000959FD1F3950F50E0551F629FF001729FAA
:10031000BB27F00DB11D639FAA27F00DB11DAA1FC9
:10032000649F6627B00DA11D661F829F2227B00D16
:10033000A11D621F739FB00DA11D621F839FA00DA1
:10034000611D221F749F3327A00D611D231F849FF1
:10035000600D211D822F762F6A2F11249F57504048
:100360008AF0E1F088234AF0EE0FFF1FBB1F661FE3
:10037000771F881F91505040A9F79E3F510570F09C
:1003800014C0AACF5F3FECF3983EDCF386957795D7
:100390006795B795F795E7959F5FC1F7FE2B880F97
:1003A000911D9695879597F9089597F99F6780E82D
:1003B00070E060E008959FEF80EC089500240A94B7
:1003C0001616170618060906089500240A94121630
:1003D0001306140605060895092E0394000C11F463
:1003E000882352F0BB0F40F4BF2B11F460FF04C010
:0E03F0006F5F7F4F8F4F9F4F0895F894FFCFA0
:00000001FF
